:100000000C9464000C948C000C948C000C948C0068
:100010000C948C000C948C000C948C000C94460A6C
:100020000C948C000C948C000C948C000C948C0020
:100030000C948C000C948C000C948C000C948C0010
:100040000C94FC090C948C000C94C80A0C94A20A21
:100050000C948C000C948C000C948C000C948C00F0
:100060000C948C000C948C000000000024002700ED
:100070002A000000000023002600290000000008DC
:10008000000201000003040700000000000000005F
:10009000010204081020408001020408102001021F
:1000A0000408102000000000250028002B00040494
:1000B0000404040404040202020202020303030310
:1000C00003030200FA0A4A1411241FBECFEFD8E03E
:1000D000DEBFCDBF24E0A0EDB2E001C01D92AE3284
:1000E000B207E1F712E0A0E0B1E0EAE2F2E302C019
:1000F00005900D92A03DB107D9F710E0C3E6D0E01E
:1001000004C02197FE010E941017C236D107C9F71B
:100110000E94BD0B0C9408190C94000096E0899F76
:10012000D0011124AD55BC4F90967C936E935F9790
:1001300091E091969C939197E0911004F0911104B5
:1001400090910F04992339F0309751F0811108C034
:100150008091BF030994309719F05C968C91FACF87
:100160000895CF92DF92EF92FF920F931F9396E044
:10017000899FF0011124ED55FC4F11A2278D30A16C
:100180002130310551F178F02230310509F451C0A8
:100190002330310509F452C01F910F91FF90EF9069
:1001A000DF90CF9008956623B9F361E070E00E947C
:1001B0008E002FB7F8948091DF029091E002A09119
:1001C000E102B091E2022FBF8093FB039093FC0306
:1001D000A093FD03B093FE03DFCF9FB7F894C090C8
:1001E000DF02D090E002E090E102F090E2029FBFD7
:1001F0000091FB031091FC032091FD033091FE035D
:10020000C01AD10AE20AF30A00910D0410910E04FB
:1002100030E020E00C151D052E053F0550F462E08E
:1002200070E01F910F91FF90EF90DF90CF900C94B2
:100230008E006111B1CF63E070E0F3CF70E060E059
:10024000F0CFFC01538D448D252F30E0842F90E0BA
:10025000821B930B541710F0CF96089501970895C1
:10026000FC01918D828D981761F0A28DAE0FBF2F8A
:10027000B11D5D968C91928D9F5F9F73928F90E0E0
:1002800008958FEF9FEF0895FC01918D828D98174F
:1002900031F0828DE80FF11D858D90E008958FEF8C
:1002A0009FEF0895FC01918D228D892F90E0805C55
:1002B0009F4F821B91098F7399270895FC01A48D8C
:1002C000A80FB92FB11DA35ABF4F2C91848D90E078
:1002D00001968F739927848FA689B7892C93A0895B
:1002E000B1898C91837080648C93938D848D9813E5
:1002F00006C00288F389E02D80818F7D8083089578
:10030000EF92FF920F931F93CF93DF93EC0181E065
:10031000888F9B8D8C8D98131AC0E889F98980810C
:1003200085FF15C09FB7F894EE89FF896083E8893F
:10033000F98980818370806480839FBF81E090E031
:10034000DF91CF911F910F91FF90EF900895F62EBE
:100350000B8D10E00F5F1F4F0F731127E02E8C8D58
:100360008E110CC00FB607FCFACFE889F98980819D
:1003700085FFF5CFCE010E945E01F1CFEB8DEC0F32
:10038000FD2FF11DE35AFF4FF0829FB7F8940B8FBA
:10039000EA89FB8980818062CFCFCF93DF93EC0124
:1003A000888D8823B9F0AA89BB89E889F9898C915D
:1003B00085FD03C0808186FD0DC00FB607FCF7CF19
:1003C0008C9185FFF2CF808185FFEDCFCE010E9419
:1003D0005E01E9CFDF91CF91089584EF92E00E9412
:1003E000520121E0892B09F420E0822F089580E05A
:1003F00090E0892B29F00E94ED0181110C940000FE
:100400000895833081F028F4813099F08230A9F08A
:1004100008958730A9F08830C9F08430B1F4809114
:1004200080008F7D03C0809180008F778093800053
:10043000089584B58F7784BD089584B58F7DFBCFF3
:100440008091B0008F778093B00008958091B000C4
:100450008F7DF9CFCF93DF93282F30E0F901E45857
:10046000FF4F8491F901E057FF4FD491F901E25514
:10047000FF4FC491CC23A1F081110E940102EC2F07
:10048000F0E0EE0FFF1FEE58FF4FA591B491EC91F5
:10049000ED2381E090E009F480E0DF91CF910895B1
:1004A00080E090E0FACF862F0C942A021F93CF931E
:1004B000DF93282F30E0F901E458FF4F8491F901D0
:1004C000E057FF4FD491F901E255FF4FC491CC237F
:1004D000A9F0162F81110E940102EC2FF0E0EE0F1F
:1004E000FF1FEC55FF4FA591B4918FB7F894EC9195
:1004F000111108C0D095DE23DC938FBFDF91CF911F
:100500001F910895DE2BF8CF862F642F0C9456028E
:10051000CF93DF9390E0FC01E057FF4F2491825589
:100520009F4FFC0184918823C9F090E0880F991FA8
:10053000FC01E859FF4FA591B491FC01EC55FF4F28
:10054000C591D49161110DC09FB7F8948C912095FD
:1005500082238C938881282328839FBFDF91CF91AA
:100560000895623051F49FB7F8943C91822F8095A2
:1005700083238C93E8812E2BEFCF8FB7F894EC91E7
:100580002E2B2C938FBFEACF8F929F92AF92BF9268
:10059000CF92DF92EF92FF92CF936B019091060181
:1005A000891769F09F3F09F46FC0CF91FF90EF90DA
:1005B000DF90CF90BF90AF909F908F900895E2EC26
:1005C000F0E0C491C7FDF1CF61E00E948802CC2326
:1005D00019F0C23009F02CC1F12CE12C60E072E17D
:1005E0008AE790E0A70196010E94F11649015A019D
:1005F000DA01C9010197A109B1098F3F9105A10550
:10060000B10509F00CF4F8C060E472E48FE090E00A
:10061000A70196010E94F1162150310941095109A3
:10062000C23009F0AAC082E02F3F310541055105D3
:1006300009F00CF492C160E970ED83E090E0A7014D
:1006400096010E94F116215031094109510983E0B8
:100650002F3F31054105510509F00CF47EC168E4D6
:1006600078EE81E090E0A70196010E94F1162150FA
:100670003109410951092F3F31054105510511F05B
:100680000CF099C084E069C180930601E2ECF0E0CF
:10069000C491CF3F09F489CFC13039F148F0C2305D
:1006A00009F445C0C7FD81CF61E00E94880291CF67
:1006B00014BC15BC94B5926094BD95B5916095BD80
:1006C000282F30E0F901E255FF4FE491F0E0EE0F02
:1006D000FF1FEC55FF4F45915491F901E057FF4F33
:1006E000E491E093E702C0E06FCF10928000109297
:1006F0008100909181009860909381009091810099
:10070000916090938100282F30E0F901E255FF4F6E
:10071000E491F0E0EE0FFF1FEC55FF4F459154912F
:10072000F901E057FF4FE491E093E6024DCF1092BC
:10073000B0001092B1009091B00092609093B00020
:100740009091B10091609093B100282F30E0F901B1
:10075000E255FF4FE491F0E0EE0FFF1FEC55FF4F25
:10076000459154915093E5024093E402F901E0571A
:10077000FF4FE491E093E30227CF2F3F310541057E
:10078000510509F00CF452C068E478EE81E090E085
:10079000A70196010E94F116215031094109510922
:1007A000CC2309F4AFC02F3F31054105510511F0AD
:1007B0000CF0B0C067CF64E274EF80E090E0A70176
:1007C00096010E94F116215031094109510985E035
:1007D0002F3F31054105510509F008F4BEC062E123
:1007E0007AE780E090E0A70196010E94F11621507F
:1007F0003109410951099CC09C0181E0C111ADC082
:1008000095B5987F892B85BD27BD8FEF9FEFDC01C4
:100810008093F0029093F102A093F202B093F3025E
:1008200080916E00826080936E00BFCE82E0E6CF42
:10083000F12CE12C60E072E18AE790E0A7019601DB
:100840000E94F116215031094109510991E0211509
:10085000310581E0480751056CF068E478EE81E0ED
:1008600090E0A70196010E94F1162150310941093B
:10087000510993E0C13009F076C080918100887FF2
:10088000892B8093810030938900209388008FEF1B
:100890009FEFDC018093EC029093ED02A093EE02B7
:1008A000B093EF0280916F00826080936F007DCEE5
:1008B0002093B3008FEF9FEFDC018093E8029093C9
:1008C000E902A093EA02B093EB028091700082608B
:1008D000809370006ACE84E02F3F310541055105B9
:1008E00009F008F48DCF9AE0B594A7949794879473
:1008F0009A95D1F7A5019401215031094109510977
:1009000085E07ECF83E02F3F31054105510509F099
:100910000CF476CF62E17AE780E090E0A7019601DF
:100920000E94F1162150310941095109CC2399F255
:1009300086E02F3F31054105510579F070F08AE0DE
:10094000B594A794979487948A95D1F7A5019401BB
:10095000215031094109510987E09091B100987FF8
:10096000892B8093B100C13009F48DCFC23009F4D6
:100970009FCFC1111ACE48CF862F642F0C948802C6
:100980006F927F928F929F92AF92BF92CF92DF929F
:10099000EF92FF920F931F93CF93DF9381E08093A9
:1009A0000F048FB7F8944091DF025091E0026091FC
:1009B000E1027091E2028FBF8091FF0390910004E9
:1009C000A0910104B0910204481B590B6A0B7B0BE8
:1009D00080910B0490910C04B0E0A0E0841795077F
:1009E000A607B70708F01DC1C0E080910904C81729
:1009F00060F4E0910504F0910604EC0FF11D62E053
:100A000080810E948802CF5FF0CF712C812C912CC5
:100A10005401839480910A04781608F05FC0072D72
:100A200010E0E0910704F0910804E00FF11F61E08D
:100A300080810E948802E0910704F0910804E00F91
:100A4000F11F60E080810E945602D501C401072C8D
:100A500004C0880F991FAA1FBB1F0A94D2F76C010C
:100A60007C01E094F094612C809109046816F8F4FC
:100A7000C62DD0E0E0910504F0910604EC0FFD1FB7
:100A800080810E942A022496CC0FDD1FCD55DC4FB9
:100A9000892B41F4888199818C299D2999838883A8
:100AA0006394E2CF888199818E219F21F7CFE091D5
:100AB0000704F0910804E00FF11F61E080810E94BB
:100AC00056028091070490910804080F191F60E0F6
:100AD000F80180810E94880273949CCFC3EAD3E01E
:100AE000FE018FEF9FEF278D30A1232B21F4148E71
:100AF000968F858F11A2369623E0EF3DF20799F786
:100B0000F12C96E0D92E80910904F81608F050C017
:100B1000E12C0F2D10E0000F111F05551C4F2091E7
:100B20000A04E21608F042C0F801608171810E2CBF
:100B300002C0769567950A94E2F7F29E900111241F
:100B40002E0D311DE3EAF3E080E0458D568D24172C
:100B5000350709F46AC08F5F36968A30B1F760FFB7
:100B600023C0E3EAF3E090E080E0448D411117C038
:100B7000E0910304F0910404E20FF31F4081D89E3A
:100B8000F001D99EF00D1124ED55FC4F448F368FA6
:100B9000258F10A2178E61E00E94B10005C001965A
:100BA00036968A30910509F7E394B9CFF394ABCF29
:100BB00080E099A19111892F2696F3E0CF3DDF07C0
:100BC000C1F79FB7F8944091DF025091E002609125
:100BD000E1027091E2029FBF4093FF035093000433
:100BE00060930104709302048823D9F08091C403B8
:100BF0008823B9F08091C2039091C303019789F4CF
:100C00008091BF03DF91CF911F910F91FF90EF90E3
:100C1000DF90CF90BF90AF909F908F907F906F901C
:100C2000089510920F0480E0EDCF6170B5CF3FB70B
:100C3000F8948091DB029091DC02A091DD02B091EA
:100C4000DE0226B5A89B05C02F3F19F00196A11D15
:100C5000B11D3FBFBA2FA92F982F8827BC01CD0106
:100C6000620F711D811D911D42E0660F771F881F65
:100C7000991F4A95D1F708958F929F92AF92BF9294
:100C8000CF92DF92EF92FF924B015C010E94170618
:100C90006B017C010E9417066C197D098E099F0962
:100CA000683E734081059105A8F321E0821A9108FE
:100CB000A108B10888EEC80E83E0D81EE11CF11C23
:100CC00081149104A104B10429F7FF90EF90DF9003
:100CD000CF90BF90AF909F908F900895089590917E
:100CE000060189130BC0E2ECF0E0E4919FEF9093D2
:100CF0000601E13049F028F0E23061F060E00C9448
:100D0000560210926E00FACF90916F009D7F9093E3
:100D10006F00F4CF909170009D7F9093700091E0F0
:100D20009093B0009091B100987F94609093B1003F
:100D30001092B300E3CFAF92BF92CF92DF92EF92C7
:100D4000FF920F931F93CF93DF936C017B018B0175
:100D5000040F151FEB015E01AE18BF08C017D107C5
:100D600059F06991D601ED91FC910190F081E02D4F
:100D7000C6010995892B79F7C501DF91CF911F91A4
:100D80000F91FF90EF90DF90CF90BF90AF900895BC
:100D9000EDE9F3E0448155816081718182E194E065
:100DA0000C949B0690E080E00895CF93DF93EC01D4
:100DB00060E08E810E94560261E08E810E945602A0
:100DC00060E08E810E9456028BE891E00197F1F776
:100DD000DF91CF910895CF92DF92EF92FF920F9320
:100DE0001F93CF93DF936C017C0187E0E80EF11C29
:100DF000D0E0C0E0062F10E0B8010C2E02C07595BF
:100E000067950A94E2F76170F70181917F010E9472
:100E100056022196C430D10579F7C601DF91CF91F2
:100E20001F910F91FF90EF90DF90CF900C94D5061B
:100E3000CF92DF92EF92FF920F931F93CF93DF93A6
:100E4000EC01F62E642F8C810E9456028D818F3F1B
:100E500019F060E00E9456020F2D10E08F8584FF8C
:100E600025C06E0187E0C80ED11CF12CE12CB80121
:100E70000E2C02C0759567950A94E2F76170F60131
:100E800081916F010E945602FFEFEF1AFF0A88E07E
:100E9000E816F10461F7CE01DF91CF911F910F9118
:100EA000FF90EF90DF90CF900C94D506B80184E0CE
:100EB000759567958A95E1F7CE010E94EB066F2D37
:100EC000CE01DF91CF911F910F91FF90EF90DF90B6
:100ED000CF900C94EB0640E0682F82E194E00C94F4
:100EE000180781E00E946B078BE39FE10197F1F700
:100EF0000895CF93DF93823029F490912104986074
:100F000090932104809325041092260480E480931A
:100F1000270480E18093280480E58093290461E020
:100F2000809116040E948802809117048F3F19F067
:100F300061E00E94880261E0809118040E948802AA
:100F4000C2E1D4E09E01225134408091210484FD0D
:100F50000BC084E090E021962817390744F461E043
:100F60008E810E948802EECF88E090E0F4CF8BE380
:100F70009DE00197F1F760E0809116040E9456020F
:100F800060E0809118040E945602809117048F3F00
:100F900019F060E00E9456028091210484FD34C063
:100FA00063E082E194E00E94EB06CBE4D6E4CE015C
:100FB0000197F1F763E082E194E00E94EB0621974C
:100FC000F1F763E082E194E00E94EB0683E592E0B2
:100FD0000197F1F762E082E194E00E94EB068091D4
:100FE000210480620E946B0784E0809322048CE0DD
:100FF0000E946B070E94710782E08093230486E0C1
:10100000DF91CF910C946B0780620E946B078BE499
:1010100096E40197F1F78091210480620E946B07AA
:1010200083E592E00197F1F78091210480620E94AC
:101030006B07D5CF90912504691710F06FEF690FFA
:10104000E62FF0E0EE5EFB4F9489890F80680C94E8
:101050006B0741E00E94180781E090E00895FB01D2
:1010600001900020E9F73197AF01461B570BDC01D7
:10107000ED91FC910280F381E02D09948F929F9273
:10108000AF92BF920F931F93CF93DF93CDB7DEB78D
:10109000A1970FB6F894DEBF0FBECDBF19A24230A4
:1010A00008F44AE08E010F5D1F4F842E912CB12C65
:1010B000A12CA50194010E94CF16E62FB901CA0107
:1010C000EA3004F5E05DD801EE938D01232B242B4B
:1010D000252B79F790E080E0109729F0BD0182E19F
:1010E00094E00E942F08A1960FB6F894DEBF0FBEC1
:1010F000CDBFDF91CF911F910F91BF90AF909F9087
:101100008F900895E95CDFCFBC0182E194E00C94FC
:101110002F084F925F926F927F928F929F92AF9221
:10112000BF92CF92DF92EF92FF92CF93DF936B014A
:101130007C01AC019B010E94CA166DE471E0811133
:101140001AC046015701E894B7F82FEF3FEF4FE779
:101150005FE7C501B4010E94CA16811128C02FEFB4
:101160003FEF4FE75FE7C501B4010E94C7141816AF
:10117000F4F461E571E082E194E00E942F087C01C3
:1011800069E571E082E194E00E942F088E0D9F1DB9
:10119000DF91CF91FF90EF90DF90CF90BF90AF9015
:1011A0009F908F907F906F905F904F9008952FEF5A
:1011B0003FEF4FE75FE4C701B6010E94C51618165E
:1011C0001CF465E571E0D7CF2FEF3FEF4FE75FEC01
:1011D000C701B6010E94C71487FDF3CF20E030E0BD
:1011E000A901C701B6010E94C714D0E0C0E087FF83
:1011F0000CC041E06DE282E194E00E941807F7FA2A
:10120000F094F7F8F094C1E0D0E02AE037ED43EA3B
:101210005BE3C701B6010E9423164B015C010E94EB
:1012200096166B017C010E94CC149B01AC01C50198
:10123000B4010E9422164B015C014AE0C701B601CD
:101240000E943E087C01EC0EFD1E41E06EE282E150
:1012500094E00E9418078FEFE81AF80A20E030E0C7
:1012600040E251E4C501B4010E942D152B013C015F
:101270000E9496164B01B12CA12C4AE0C501B40185
:101280000E943E08E80EF91EC501B4010E94CC146C
:101290009B01AC01C301B2010E94221620E030E0A4
:1012A00040E251E40E942D150E94961690E080E0E5
:1012B0004AE00E943E08E80EF91E62CFCF93DF930A
:1012C0000E94C806EC0169E571E082E194E00E94A9
:1012D0002F088C0F9D1FDF91CF9108950F931F93BF
:1012E000CF93DF93EC010E942F088C0169E571E038
:1012F000CE010E942F08800F911FDF91CF911F9187
:101300000F910895CF93DF93EC0188819981009725
:1013100011F00E94B217198218821D821C821B8252
:101320001A82DF91CF910895FC018081918100970D
:1013300011F00C94B21708950F931F93CF93DF937E
:10134000EC0188819981009759F02A813B81261709
:10135000370730F081E0DF91CF911F910F91089511
:101360008B016F5F7F4F0E943B18009759F0998364
:1013700088831B830A832C813D81232B59F7FC0131
:101380001082E8CF80E0E7CFEF92FF920F931F9398
:10139000CF93DF93EC017B018A01BA010E949C0983
:1013A00081110BC0CE010E948209CE01DF91CF9145
:1013B0001F910F91FF90EF9008951D830C83B7014B
:1013C000888199810E940119F0CFFC01118210825D
:1013D000138212821582148250E040E06BE571E0C6
:1013E0000C94C409FB0101900020E9F73197AF018B
:1013F000461B570B0C94C4091F920F920FB60F9205
:1014000011242F933F938F939F93AF93BF9380911A
:10141000DF029091E002A091E102B091E2023091EE
:10142000DA0223E0230F2D3758F50196A11DB11DD7
:101430002093DA028093DF029093E002A093E1020E
:10144000B093E2028091DB029091DC02A091DD0278
:10145000B091DE020196A11DB11D8093DB02909335
:10146000DC02A093DD02B093DE02BF91AF919F91A9
:101470008F913F912F910F900FBE0F901F90189555
:1014800026E8230F0296A11DB11DD2CF1F920F9205
:101490000FB60F9211242F933F934F935F936F9347
:1014A0007F938F939F93AF93BF93EF93FF9380911D
:1014B000E8029091E902A091EA02B091EB02892B37
:1014C0008A2B8B2BD1F19091E302E091E402F09111
:1014D000E5028081892780838091E8029091E9026A
:1014E000A091EA02B091EB02181619061A061B0623
:1014F0009CF48091E8029091E902A091EA02B091F7
:10150000EB020197A109B1098093E8029093E902E7
:10151000A093EA02B093EB02FF91EF91BF91AF91DC
:101520009F918F917F916F915F914F913F912F91FB
:101530000F900FBE0F901F901895809106010E948A
:101540006F06EACF1F920F920FB60F9211242F93BE
:101550003F934F935F936F937F938F939F93AF933B
:10156000BF93EF93FF9384EF92E00E945E01FF919F
:10157000EF91BF91AF919F918F917F916F915F910B
:101580004F913F912F910F900FBE0F901F90189584
:101590001F920F920FB60F9211242F938F939F9348
:1015A000EF93FF93E0910403F09105038081E091B4
:1015B0000A03F0910B0382FD1BC0908180910D0303
:1015C0008F5F8F7320910E03821741F0E0910D031E
:1015D000F0E0EC50FD4F958F80930D03FF91EF915C
:1015E0009F918F912F910F900FBE0F901F90189584
:1015F0008081F4CF1092F7021092F60288EE93E009
:10160000A0E0B0E08093F8029093F902A093FA0270
:10161000B093FB0289E291E09093F5028093F4028B
:1016200085EC90E0909301038093000384EC90E0BC
:10163000909303038093020380EC90E09093050362
:101640008093040381EC90E090930703809306035A
:1016500082EC90E0909309038093080386EC90E07D
:1016600090930B0380930A0310920D0310920E03C4
:1016700010920F031092100310921504109214048C
:1016800085E491E0909313048093120481E08093A9
:1016900016048FEF80931704109218048FE0809344
:1016A000190480E180931A048AE080931B0489E086
:1016B00080931C0410921D0410921E0410921F04AB
:1016C000109220041092210481E00E947907109268
:1016D000A5031092A9031092A8031092AA038BE30A
:1016E00091E09093A4038093A303EFEBF3E01082C7
:1016F000148213821582369683E0EB3FF807B9F720
:101700008BE091E0909306048093050487E091E0DC
:10171000909308048093070484E0809309048093E5
:101720000A048FE091E090930404809303048AE01C
:1017300090E090930C0480930B0484EF91E09093DD
:101740000E0480930D041092110410921004109254
:10175000FF031092000410920104109202041092F0
:101760000F048DE993E00E94E50987E993E00E9468
:10177000E50981E993E00C94E509CF93DF93CDB7B8
:10178000DEB768970FB6F894DEBF0FBECDBF789472
:1017900084B5826084BD84B5816084BD85B5826076
:1017A00085BD85B5816085BD80916E008160809327
:1017B0006E00109281008091810082608093810090
:1017C00080918100816080938100809180008160A0
:1017D000809380008091B10084608093B1008091FB
:1017E000B00081608093B00080917A008460809323
:1017F0007A0080917A00826080937A0080917A00EA
:10180000816080937A0080917A00806880937A006A
:101810001092C10082E00E9479078CE591E00E945D
:10182000840868EE73E080E090E00E943C060E942D
:10183000710761E08DE00E94880282E00E947907D2
:1018400088E691E00E94840880E0A82E80E0B82E0F
:1018500094E6C92ED12C2AE0E22EF12C0E94C0047D
:10186000182F882309F4F4C3883561F50E947107A5
:101870001092D9021092D8021092D7026BE571E053
:101880008DE993E00E94F2096BE571E081E993E054
:101890000E94F2091092D6021092D5021092D40240
:1018A0001092D30282E00E94790788E791E00E94BB
:1018B000840869E871E084EF92E00E946E0910925A
:1018C000D202C6C386ED810F823030F0812F8D7F2A
:1018D0008D3211F01D33B9F461E080E00E941A08E6
:1018E0008BE891E00E9484086CED75E080E090E068
:1018F0000E943C060E94710782E00E94790788E7F7
:1019000091E00E948408113309F05EC361E080E039
:101910000E941A088BE991E00E94840860ED77E04C
:1019200080E090E00E943C060E94710760E080E049
:101930000E941A088BEA91E00E94840881E080935B
:10194000D2028091D202882309F43EC30E94C004CF
:10195000182F882339F186ED810F823020F0812FF6
:101960008D7F8D32F9F461E080E00E941A088CEBE3
:1019700091E00E9484086CED75E080E090E00E94A8
:101980003C060E94710760E080E00E941A088BEA22
:1019900091E00E94840861E080E00E941A080E94A1
:1019A0005E09CFCF80ED810F8A3008F0D0C08091E2
:1019B000D3029091D40205970CF059C01A82198273
:1019C0001C821B821E821D8260919D0370919E036A
:1019D0006115710541F04091A1035091A203CE0120
:1019E00001960E94C4091B8B1C8A6D807E802FEF9C
:1019F000621A720AB301CE0101960E949C098823E3
:101A000061F129813A818D819E81BE016D5E7F4F9A
:101A1000820F931F0E9401197E826D8269817A81F3
:101A200061157105F9F04D815E818DE993E00E94A9
:101A3000C409CE0101960E94940961E080E00E94F1
:101A40001A080E94C8068091D3029091D402019690
:101A50009093D4028093D30274CFCE0101960E945A
:101A60008209DCCF8DE993E00E948209E2CF61E038
:101A700080E00E941A086DEC71E082E194E00E941F
:101A80006E091092D1021092D002D0920501C0923C
:101A900004016090D0027090D102161417040CF467
:101AA00044C06091040170910501072E000C880B61
:101AB000990B0E94CE1420E53DE847E85FE30E94C1
:101AC0002D150E948F161B01709305016093040170
:101AD00083E00E94C4026CE271E080E090E00E942A
:101AE0003C0683E00E946F066CE271E080E090E0CB
:101AF0000E943C06B10183E00E94C4026CE271E0E6
:101B000080E090E00E943C0683E00E946F066CE259
:101B100071E080E090E00E943C068FEF681A780A3E
:101B20007092D1026092D002B4CF60E080E00E9457
:101B30001A088BEA91E00E94840861E080E00E942C
:101B40001A080E94C80681E08093D902FACE1D339C
:101B500029F08091D902882309F418C280919D034D
:101B600090919E03009709F4CAC00E9456142091D8
:101B7000D7023091D802620F731F7093D80260931E
:101B8000D702072E000C880B990B0E94CE142091CF
:101B900000013091010140910201509103010E9426
:101BA00023160E948F16CB017093D6026093D50244
:101BB0001C8A1B8A1E8A1D8A188E1F8A4AE0BE0153
:101BC0006F5F7F4F0E947D14BE016F5F7F4FCE011C
:101BD00043960E94F209809191039091920300979D
:101BE00009F493C06B897C896115710509F48BC078
:101BF00040919303509194032F89388D42175307D6
:101C000008F481C00E9401198F89988D90939603E2
:101C100080939503188E1F8ACE0143960E949409E3
:101C20006090D7027090D80224E6621671040CF01E
:101C300088C068EE73E080E090E00E943C060E945D
:101C4000710762E080E00E941A086DED71E082E1A8
:101C500094E00E946E091092D1021092D002D092AC
:101C60000501C09204016090D0027090D102161458
:101C700017040CF461C06091040170910501072EF6
:101C8000000C880B990B0E94CE1420E53DE847E834
:101C90005FE30E942D150E948F161B0170930501B2
:101CA0006093040183E00E94C4026CE271E080E072
:101CB00090E00E943C0683E00E946F066CE271E0B7
:101CC00080E090E00E943C06B10183E00E94C402E3
:101CD0006CE271E080E090E00E943C0683E00E94AC
:101CE0006F066CE271E080E090E00E943C068FEFAE
:101CF000681A780A7092D1026092D002B4CF60E084
:101D000070E0CB0134CF0E94B2178B899C899093ED
:101D10009203809391038D899E899093940380937D
:101D200093038F89988D90939603809395031C8AD3
:101D30001B8A1E8A1D8A6ECF68EE73E080E090E0F9
:101D40001ECE2FE0621627E2720644F48091D5027F
:101D50009091D6028F3097420CF463C068EE73E026
:101D600080E090E00E943C060E94710762E080E003
:101D70000E941A088EEE91E00E9484081092D1020F
:101D80001092D002D0920501C09204016090D0025E
:101D90007090D102161417047CF2609104017091C6
:101DA0000501072E000C880B990B0E94CE1420E52C
:101DB0003DE847E85FE30E942D150E948F161B0146
:101DC000709305016093040183E00E94C4026CE2F9
:101DD00071E080E090E00E943C0683E00E946F0684
:101DE0006CE271E080E090E00E943C06B10183E08B
:101DF0000E94C4026CE271E080E090E00E943C0628
:101E000083E00E946F066CE271E080E090E00E9447
:101E10003C068FEF681A780A7092D1026092D00265
:101E2000B5CF8091D3029091D4020297039708F026
:101E300088CD60ED77E080E090E00E943C060E9453
:101E40007107B301770C880B990B0E94CE149B018C
:101E5000AC016091000170910101809102019091AB
:101E600003010E9423166093000170930101809387
:101E700002019093030160E080E00E941A086EEF77
:101E800071E082E194E00E946E0961E081E00E94CD
:101E90001A086FE072E082E194E00E946E0961E04E
:101EA00082E00E941A086091000170910101809106
:101EB0000201909103010E9489081092D1021092B0
:101EC000D002F0920501E09204016090D00270907F
:101ED000D1021614170484F1609104017091050178
:101EE000072E000C880B990B0E94CE1420E53DE8CC
:101EF00047E85FE30E942D150E948F16709305013D
:101F00006093040183E00E94C4026CE271E080E00F
:101F100090E00E943C0683E00E946F066CE271E054
:101F200080E090E00E943C062FEF621A720A7092E5
:101F3000D1026092D002C9CF60ED77E080E090E0FE
:101F40000E943C060E94710782E00E94790788E7A0
:101F500091E00E9484081092D9026BE571E081E95A
:101F600093E00E94F2091092D8021092D7026BE51A
:101F700071E08DE993E00E94F2091092D60210926E
:101F8000D5021092D4021092D30299CC183509F0E0
:101F9000D8CC6BE571E081E993E00E94F2091092E0
:101FA000D8021092D7026BE571E08DE993E00E94B0
:101FB000F2091092D6021092D5021092D902109214
:101FC000D4021092D302E5C3123309F04DC061E090
:101FD00080E00E941A0881E192E00E94840860ED8E
:101FE00077E080E090E00E943C060E94710760E08C
:101FF00080E00E941A086FE172E082E194E00E94A2
:102000006E0961E081E00E941A086FE072E082E1EF
:1020100094E00E946E0961E082E00E941A086091DB
:1020200000017091010180910201909103010E94D1
:10203000890868EB7BE080E090E00E943C060E940B
:10204000710782E00E94790788E791E00E94840886
:10205000A114B10409F402CC0E94ED01882309F413
:10206000FDCB0E940000FACB133391F761E080E0D2
:102070000E941A0880E392E00E94840860ED77E0F5
:1020800080E090E00E943C060E94710760E080E0E2
:102090000E941A088DE392E00E94840861E080E0CB
:1020A0000E941A088EE492E00E94840881E08093E6
:1020B000D2028091D202882359F20E94C004182FC4
:1020C0008FEC810F863008F0DDC340900001509006
:1020D0000101609002017090030120E030E04AEFBE
:1020E00053ECC301B2010E94C51687FDAFC268EE72
:1020F00073E080E090E0113309F072C00E943C066A
:102100000E94710720E030E04CE853E4C301B201C3
:102110000E942216609300017093010180930201D6
:102120009093030160E080E00E941A086BE572E082
:1021300082E194E00E946E0961E081E00E941A0849
:102140006FE072E082E194E00E946E0961E082E05B
:102150000E941A0860E070E08CE893E40E9489080D
:102160001092D1021092D002F0920501E092040187
:102170006090D0027090D102161417040CF4D9C2EA
:102180006091040170910501072E000C880B990BDA
:102190000E94CE1420E53DE847E85FE30E942D153C
:1021A0000E948F16709305016093040183E00E94E2
:1021B000C4026CE271E080E090E00E943C0683E0A3
:1021C0000E946F066CE271E080E090E00E943C06A5
:1021D0008FEF681A780A7092D1026092D002C8CF4D
:1021E000123309F072C00E943C060E94710720E081
:1021F00030E843E653E4C301B2010E942216609323
:10220000000170930101809302019093030160E04B
:1022100080E00E941A086EE672E082E194E00E947B
:102220006E0961E081E00E941A086FE072E082E1CD
:1022300094E00E946E0961E082E00E941A0860E06A
:1022400070E883E693E40E9489081092D10210920C
:10225000D002F0920501E09204016090D0027090EB
:10226000D102161417040CF464C260910401709139
:102270000501072E000C880B990B0E94CE1420E557
:102280003DE847E85FE30E942D150E948F1670938A
:1022900005016093040183E00E94C4026CE271E0D6
:1022A00080E090E00E943C0683E00E946F066CE2B2
:1022B00071E080E090E00E943C062FEF621A720A03
:1022C0007092D1026092D002C8CF133309F072C06D
:1022D0000E943C060E94710720E030E84DE153E483
:1022E000C301B2010E9422166093000170930101A4
:1022F000809302019093030160E080E00E941A083D
:1023000061E872E082E194E00E946E0961E081E0A0
:102310000E941A086FE072E082E194E00E946E0968
:1023200061E082E00E941A0860E070E88DE193E4C9
:102330000E9489081092D1021092D002F0920501F9
:10234000E09204016090D0027090D102161417043C
:102350000CF4EFC16091040170910501072E000C8F
:10236000880B990B0E94CE1420E53DE847E85FE317
:102370000E942D150E948F16709305016093040131
:1023800083E00E94C4026CE271E080E090E00E9471
:102390003C0683E00E946F066CE271E080E090E012
:1023A0000E943C068FEF681A780A7092D102609200
:1023B000D002C8CF143309F062C00E943C060E94CC
:1023C000710760E080E00E941A0862E972E082E131
:1023D00094E00E946E0961E081E00E941A086FE0BB
:1023E00072E082E194E00E946E0961E082E00E9466
:1023F0001A086EE972E082E194E00E946E09109280
:10240000D1021092D002F0920501E0920401609096
:10241000D0027090D102161417040CF48AC1609196
:10242000040170910501072E000C880B990B0E9486
:10243000CE1420E53DE847E85FE30E942D150E9499
:102440008F16709305016093040183E00E94C4021B
:102450006CE271E080E090E00E943C0683E00E9424
:102460006F066CE271E080E090E00E943C062FEF86
:10247000621A720A7092D1026092D002C8CF1533EC
:1024800009F072C00E943C060E94710720E030E013
:1024900046E153E4C301B2010E9422166093000199
:1024A00070930101809302019093030160E080E04A
:1024B0000E941A0864EA72E082E194E00E946E09C8
:1024C00061E081E00E941A086FE072E082E194E02E
:1024D0000E946E0961E082E00E941A0860E070E0EC
:1024E00086E193E40E9489081092D1021092D002F2
:1024F000F0920501E09204016090D0027090D10248
:10250000161417040CF415C16091040170910501B3
:10251000072E000C880B990B0E94CE1420E53DE895
:1025200047E85FE30E942D150E948F167093050106
:102530006093040183E00E94C4026CE271E080E0D9
:1025400090E00E943C0683E00E946F066CE271E01E
:1025500080E090E00E943C068FEF681A780A709243
:10256000D1026092D002C8CF0E943C060E9471073F
:1025700020E030E04FEA53E4C301B2010E9422168A
:102580006093000170930101809302019093030115
:1025900060E080E00E941A0863EB72E082E194E060
:1025A0000E946E0961E081E00E941A086FE072E00B
:1025B00082E194E00E946E0961E082E00E941A08C4
:1025C00060E070E08FEA93E40E9489081092D102E3
:1025D0001092D002F0920501E09204016090D002C6
:1025E0007090D102161417040CF4A3C0609104017A
:1025F00070910501072E000C880B990B0E94CE14D8
:1026000020E53DE847E85FE30E942D150E948F1604
:10261000709305016093040183E00E94C4026CE2A0
:1026200071E080E090E00E943C0683E00E946F062B
:102630006CE271E080E090E00E943C062FEF621AAD
:10264000720A7092D1026092D002C8CF20E030E0CE
:102650004AEF53ECC301B2010E94C71418160CF4E0
:1026600028CD143309F09FC068EE73E080E090E05D
:102670000E943C060E94710760E080E00E941A08F8
:1026800062E972E082E194E00E946E0961E081E01B
:102690000E941A086FE072E082E194E00E946E09E5
:1026A00061E082E00E941A086EE972E082E194E043
:1026B0000E946E091092D1021092D002F092050190
:1026C000E09204016090D0027090D10216141704B9
:1026D00084F16091040170910501072E000C880BB4
:1026E000990B0E94CE1420E53DE847E85FE30E9485
:1026F0002D150E948F16709305016093040183E0ED
:102700000E94C4026CE271E080E090E00E943C060E
:1027100083E00E946F066CE271E080E090E00E942E
:102720003C068FEF681A780A7092D1026092D0024C
:10273000C9CF68EE73E080E090E00E943C060E9402
:10274000710760E080E00E941A086EEF71E082E19C
:1027500094E00E946E0961E081E00E941A086FE037
:1027600072E082E194E00E946E0961E082E00E94E2
:102770001A0860910001709101018091020190910D
:1027800003010E94890868EE73E080E090E00E94F7
:102790003C060E94710782E00E94790788E791E079
:1027A0000E9484088CC864EF71E080E090E00E9491
:1027B0003C060E94710760E086E00E941A0889E8E2
:1027C00091E00E94840861E080E00E941A0881EC98
:1027D00092E00E9484081092D1021092D002D0920E
:1027E0000501C09204016090D0027090D1021614CD
:1027F00017040CF442C06091040170910501072E8A
:10280000000C880B990B0E94CE1420E53DE847E8A8
:102810005FE30E942D150E948F161B017093050126
:102820006093040161E08DE00E94880261E08DE028
:102830000E945602B10183E00E94C4026CE271E082
:1028400080E090E00E943C0683E00E946F066CE20C
:1028500071E080E090E00E943C0661E08DE00E9423
:10286000880260E08DE00E9456022FEF621A720A21
:102870007092D1026092D002B6CF60ED77E080E036
:1028800090E085CF183509F014CC6BE571E081E953
:1028900093E08DCB81E993E00E94940987E993E06E
:1028A0000E9494098DE993E00C9494091F93FC0114
:1028B00099278827BC01E89411911032E9F3193067
:1028C00010F01E30C8F31B3251F01D3249F46894E9
:1028D00006C00E948814610F711D811D911D119108
:1028E00010531A30B0F33EF4909580957095619531
:1028F0007F4F8F4F9F4F1F910895BB274A3031F470
:10290000992322F4BDE2909581959F4F0C949E14DB
:10291000592F482F372F262F660F771F881F991F93
:10292000660F771F881F991F620F731F841F951FE3
:10293000660F771F881F991F0895BB27FB01552736
:10294000AA27880F991FAA1FA41710F0A41B83950C
:102950005051B9F7A05DAA3308F0A95DA193009783
:1029600079F7B111B1931192CB010C94B714DC013A
:10297000FC01672F71917723E1F7329704C07C91B6
:102980006D9370836291AE17BF07C8F308950E94DC
:10299000091508F481E00895E89409C097FB3EF416
:1029A00090958095709561957F4F8F4F9F4F99239C
:1029B000A9F0F92F96E9BB279395F695879577951A
:1029C0006795B795F111F8CFFAF4BB0F11F460FFDA
:1029D0001BC06F5F7F4F8F4F9F4F16C0882311F032
:1029E00096E911C0772321F09EE8872F762F05C046
:1029F000662371F096E8862F70E060E02AF09A95E1
:102A0000660F771F881FDAF7880F9695879597F9D5
:102A10000895990F0008550FAA0BE0E8FEEF16166F
:102A20001706E807F907C0F012161306E407F507C2
:102A300098F0621B730B840B950B39F40A2661F036
:102A4000232B242B252B21F408950A2609F4A140D9
:102A5000A6958FEF811D811D08950E9440150C944D
:102A6000B1150E94A31538F00E94AA1520F09523F5
:102A700011F00C949A150C94A01511240C94E515E2
:102A80000E94C21570F3959FC1F3950F50E0551F3A
:102A9000629FF001729FBB27F00DB11D639FAA27B3
:102AA000F00DB11DAA1F649F6627B00DA11D661F02
:102AB000829F2227B00DA11D621F739FB00DA11D23
:102AC000621F839FA00D611D221F749F3327A00DDD
:102AD000611D231F849F600D211D822F762F6A2F79
:102AE00011249F5750409AF0F1F088234AF0EE0FDE
:102AF000FF1FBB1F661F771F881F91505040A9F70B
:102B00009E3F510580F00C949A150C94E5155F3F9B
:102B1000E4F3983ED4F3869577956795B795F79546
:102B2000E7959F5FC1F7FE2B880F911D96958795BE
:102B300097F9089597F99F6780E870E060E008953D
:102B40009FEF80EC089500240A94161617061806C5
:102B50000906089500240A941216130614060506A1
:102B60000895092E0394000C11F4882352F0BB0F32
:102B700040F4BF2B11F460FF04C06F5F7F4F8F4F95
:102B80009F4F089557FD9058440F551F59F05F3FD0
:102B900071F04795880F97FB991F61F09F3F79F07F
:102BA00087950895121613061406551FF2CF469501
:102BB000F1DF08C0161617061806991FF1CF869583
:102BC0007105610508940895E894BB276627772767
:102BD000CB0197F908952F923F924F925F926F9297
:102BE0007F928F929F92AF92BF92CF92DF92EF929D
:102BF000FF920F931F93CF93DF93CDB7DEB7CA1B1E
:102C0000DB0B0FB6F894DEBF0FBECDBF09942A8848
:102C1000398848885F846E847D848C849B84AA84F0
:102C2000B984C884DF80EE80FD800C811B81AA817D
:102C3000B981CE0FD11D0FB6F894DEBF0FBECDBF48
:102C4000ED0108955058BB27AA270E943A160C940C
:102C5000B1150E94A31538F00E94AA1520F039F48E
:102C60009F3F19F426F40C94A0150EF4E095E7FBB1
:102C70000C949A15E92F0E94C21558F3BA176207EF
:102C800073078407950720F079F4A6F50C94E415F2
:102C90000EF4E0950B2EBA2FA02D0B01B901900177
:102CA0000C01CA01A0011124FF27591B99F0593FBB
:102CB00050F4503E68F11A16F040A22F232F342F03
:102CC0004427585FF3CF469537952795A795F04051
:102CD0005395C9F77EF41F16BA0B620B730B840B66
:102CE000BAF09150A1F0FF0FBB1F661F771F881F1E
:102CF000C2F70EC0BA0F621F731F841F48F4879576
:102D000077956795B795F7959E3F08F0B0CF939567
:102D1000880F08F09927EE0F9795879508950E94E0
:102D200096166894B1110C94E51508950E94CA1581
:102D300088F09F5798F0B92F9927B751B0F0E1F07C
:102D4000660F771F881F991F1AF0BA95C9F714C02C
:102D5000B13091F00E94E415B1E008950C94E415AF
:102D6000672F782F8827B85F39F0B93FCCF3869565
:102D700077956795B395D9F73EF4909580957095C2
:102D800061957F4F8F4F9F4F08950E94091508F45A
:102D90008FEF08950E940915880B990B0895A1E201
:102DA0001A2EAA1BBB1BFD010DC0AA1FBB1FEE1FC5
:102DB000FF1FA217B307E407F50720F0A21BB30B10
:102DC000E40BF50B661F771F881F991F1A9469F78C
:102DD00060957095809590959B01AC01BD01CF01E8
:102DE0000895052E97FB1EF400940E94081757FDC6
:102DF00007D00E94CF1607FC03D04EF40C9408179E
:102E000050954095309521953F4F4F4F5F4F089516
:102E100090958095709561957F4F8F4F9F4F089546
:102E2000EE0FFF1F0590F491E02D09940F931F936F
:102E3000CF93DF938230910510F482E090E0E0912F
:102E40002C04F0912D0430E020E0B0E0A0E03097B9
:102E500099F42115310509F44AC0281B390B243097
:102E60003105D8F58A819B816115710589F1FB01D6
:102E700093838283FE0111C04081518102811381BD
:102E800048175907E0F04817590799F4109761F06F
:102E900012960C93129713961C933296CF01DF91E2
:102EA000CF911F910F91089500932C0410932D043E
:102EB000F4CF2115310551F04217530738F0A9011D
:102EC000DB019A01BD01DF01F801C1CFEF01F9CFAC
:102ED00090932D0480932C04CDCFFE01E20FF31FBD
:102EE000819391932250310939832883D7CF209140
:102EF0002A0430912B04232B41F42091210130919D
:102F0000220130932B0420932A0420911F01309139
:102F100020012115310541F42DB73EB74091230121
:102F200050912401241B350BE0912A04F0912B04CD
:102F3000E217F307A0F42E1B3F0B2817390778F090
:102F4000AC014E5F5F4F2417350748F04E0F5F1FEF
:102F500050932B0440932A04819391939FCFF0E0E8
:102F6000E0E09CCFCF93DF930097E9F0FC0132972C
:102F700013821282A0912C04B0912D04ED0130E057
:102F800020E01097A1F420813181820F931F2091BE
:102F90002A0430912B042817390709F061C0F093F7
:102FA0002B04E0932A04DF91CF910895EA01CE1714
:102FB000DF07E8F54A815B819E0141155105B1F7B4
:102FC000E901FB83EA8349915991C40FD51FEC179E
:102FD000FD0761F4808191810296840F951FE901BC
:102FE00099838883828193819B838A83F0E0E0E0E8
:102FF00012968D919C9113970097B9F52D913C9164
:103000001197CD010296820F931F20912A043091CF
:103010002B042817390739F6309751F510922D04F3
:1030200010922C04B0932B04A0932A04BCCFD3831A
:10303000C28340815181840F951FC817D90761F45D
:103040004E5F5F4F88819981480F591F518340839C
:103050008A819B81938382832115310509F0B0CF4A
:10306000F0932D04E0932C049ECFFD01DC01C0CF32
:1030700013821282D7CFB0E0A0E0E1E4F8E10C9433
:10308000ED158C01009751F4CB010E9416178C01AD
:10309000C801CDB7DEB7E0E10C940916FC01E60FDC
:1030A000F71F9C0122503109E217F30708F49DC075
:1030B000D901CD91DC911197C617D70798F0C5308B
:1030C000D10530F3CE0104978617970708F3C61B86
:1030D000D70B2297C193D1936D937C93CF010E941C
:1030E000B217D6CF5B01AC1ABD0A4C018C0E9D1EE7
:1030F000A0912C04B0912D04512C412CF12CE12CE9
:10310000109731F580912A0490912B048815990528
:1031100009F05CC04616570608F058C080911F01A0
:1031200090912001009741F48DB79EB74091230103
:1031300050912401841B950BE817F90708F055C03E
:10314000F0932B04E0932A04F90171836083A0CFEC
:103150008D919C91119712966C90129713967C907A
:103160001397A815B90559F56C0142E0C40ED11C9E
:10317000CA14DB0420F1AC014A195B09DA0112968A
:10318000159780F06282738251834083D9016D93D9
:103190007C93E114F10471F0D7011396FC93EE9344
:1031A000129776CF22968C0F9D1FF9019183808311
:1031B000F301EFCFF0932D04E0932C0469CF481670
:1031C000590608F42C017D01D3019ACFCB010E944E
:1031D00016177C01009749F0AE01B8010E94F8185B
:1031E000C8010E94B217870153CF10E000E050CF12
:1031F000FB01DC0102C001900D9241505040D8F714
:103200000895FB01DC0101900D920020E1F7089583
:1032100010E0C3E6D0E004C0FE010E941017219622
:0A322000C436D107C9F7F894FFCFB8
:10322A000080FAC36400FF060504020C0B08073786
:10323A0038392F3435362A3132332D58303D2B0068
:10324A00002E0480000000000080019B062101CDB1
:10325A000152013001440100000000BC0484025301
:10326A00020000000029089B06D2066E066E616EF7
:10327A0000696E66006F7666000D0A004361726728
:10328A00616E646F2E2E2E00496E7365727465200E
:10329A007375205355424500496E736572746520F3
:1032AA00737520535542453A00580050726573733E
:1032BA003A20312C2032206F20330041637265643A
:1032CA00697461722053616C646F00416372656452
:1032DA00697461722053616C646F3A00507265734D
:1032EA00696F6E65204E756D65726F73004E6F2043
:1032FA006DC3A17320646520393939390053656C6F
:10330A00656363696F6E65202B24313030004E6F20
:10331A00206D617320646520243939393900537569
:10332A002073616C646F2061637475616C3A002468
:10333A00004D6F73747261722053616C646F004543
:10334A006C2053616C646F2041637475616C3A0040
:10335A00506167617220506173616A650053656CE0
:10336A0065637420537562736964696F3A005072B9
:10337A00657373206F7020312D3600426F6C65744F
:10338A006F20457374756469616E74653A00426FA3
:10339A006C65746F204D617465726E696461643A1C
:1033AA0000426F6C65746F204A7562696C61646F64
:1033BA003A00426F6C65746F204355443A003030CE
:1033CA002E303000426F6C65746F204D696E696DE6
:1033DA006F3A00426F6C65746F20436F6D756E3A79
:1033EA000053616C646F204E6567617469766F0083
:00000001FF
